{
  "contracts/Treasury.sol": {
    "Treasury": {
      "abi": [
        {
          "inputs": [],
          "stateMutability": "payable",
          "type": "constructor"
        },
        {
          "inputs": [
            {
              "internalType": "address",
              "name": "owner",
              "type": "address"
            }
          ],
          "name": "OwnableInvalidOwner",
          "type": "error"
        },
        {
          "inputs": [
            {
              "internalType": "address",
              "name": "account",
              "type": "address"
            }
          ],
          "name": "OwnableUnauthorizedAccount",
          "type": "error"
        },
        {
          "anonymous": false,
          "inputs": [
            {
              "indexed": true,
              "internalType": "address",
              "name": "previousOwner",
              "type": "address"
            },
            {
              "indexed": true,
              "internalType": "address",
              "name": "newOwner",
              "type": "address"
            }
          ],
          "name": "OwnershipTransferred",
          "type": "event"
        },
        {
          "inputs": [],
          "name": "addFunds",
          "outputs": [],
          "stateMutability": "payable",
          "type": "function"
        },
        {
          "inputs": [],
          "name": "launch",
          "outputs": [],
          "stateMutability": "nonpayable",
          "type": "function"
        },
        {
          "inputs": [],
          "name": "owner",
          "outputs": [
            {
              "internalType": "address",
              "name": "",
              "type": "address"
            }
          ],
          "stateMutability": "view",
          "type": "function"
        },
        {
          "inputs": [
            {
              "internalType": "address",
              "name": "_payee",
              "type": "address"
            },
            {
              "internalType": "uint256",
              "name": "amount",
              "type": "uint256"
            }
          ],
          "name": "releaseFunds",
          "outputs": [],
          "stateMutability": "nonpayable",
          "type": "function"
        },
        {
          "inputs": [],
          "name": "renounceOwnership",
          "outputs": [],
          "stateMutability": "nonpayable",
          "type": "function"
        },
        {
          "inputs": [],
          "name": "status",
          "outputs": [
            {
              "internalType": "string",
              "name": "",
              "type": "string"
            }
          ],
          "stateMutability": "view",
          "type": "function"
        },
        {
          "inputs": [],
          "name": "totalFunds",
          "outputs": [
            {
              "internalType": "uint256",
              "name": "",
              "type": "uint256"
            }
          ],
          "stateMutability": "view",
          "type": "function"
        },
        {
          "inputs": [
            {
              "internalType": "address",
              "name": "newOwner",
              "type": "address"
            }
          ],
          "name": "transferOwnership",
          "outputs": [],
          "stateMutability": "nonpayable",
          "type": "function"
        }
      ],
      "evm": {
        "bytecode": {
          "linkReferences": {},
          "object": "608060405233600073ffffffffffffffffffffffffffffffffffffffff168173ffffffffffffffffffffffffffffffffffffffff16036200007a5760006040517f1e4fbdf7000000000000000000000000000000000000000000000000000000008152600401620000719190620001e9565b60405180910390fd5b6200008b81620000e060201b60201c565b50346002819055506040518060400160405280600881526020017f69676e6974696f6e00000000000000000000000000000000000000000000000081525060019081620000d9919062000480565b5062000567565b60008060009054906101000a900473ffffffffffffffffffffffffffffffffffffffff169050816000806101000a81548173ffffffffffffffffffffffffffffffffffffffff021916908373ffffffffffffffffffffffffffffffffffffffff1602179055508173ffffffffffffffffffffffffffffffffffffffff168173ffffffffffffffffffffffffffffffffffffffff167f8be0079c531659141344cd1fd0a4f28419497f9722a3daafe3b4186f6b6457e060405160405180910390a35050565b600073ffffffffffffffffffffffffffffffffffffffff82169050919050565b6000620001d182620001a4565b9050919050565b620001e381620001c4565b82525050565b6000602082019050620002006000830184620001d8565b92915050565b600081519050919050565b7f4e487b7100000000000000000000000000000000000000000000000000000000600052604160045260246000fd5b7f4e487b7100000000000000000000000000000000000000000000000000000000600052602260045260246000fd5b600060028204905060018216806200028857607f821691505b6020821081036200029e576200029d62000240565b5b50919050565b60008190508160005260206000209050919050565b60006020601f8301049050919050565b600082821b905092915050565b600060088302620003087fffffffffffffffffffffffffffffffffffffffffffffffffffffffffffffffff82620002c9565b620003148683620002c9565b95508019841693508086168417925050509392505050565b6000819050919050565b6000819050919050565b6000620003616200035b62000355846200032c565b62000336565b6200032c565b9050919050565b6000819050919050565b6200037d8362000340565b620003956200038c8262000368565b848454620002d6565b825550505050565b600090565b620003ac6200039d565b620003b981848462000372565b505050565b5b81811015620003e157620003d5600082620003a2565b600181019050620003bf565b5050565b601f8211156200043057620003fa81620002a4565b6200040584620002b9565b8101602085101562000415578190505b6200042d6200042485620002b9565b830182620003be565b50505b505050565b600082821c905092915050565b6000620004556000198460080262000435565b1980831691505092915050565b600062000470838362000442565b9150826002028217905092915050565b6200048b8262000206565b67ffffffffffffffff811115620004a757620004a662000211565b5b620004b382546200026f565b620004c0828285620003e5565b600060209050601f831160018114620004f85760008415620004e3578287015190505b620004ef858262000462565b8655506200055f565b601f1984166200050886620002a4565b60005b8281101562000532578489015182556001820191506020850194506020810190506200050b565b868310156200055257848901516200054e601f89168262000442565b8355505b6001600288020188555050505b505050505050565b610a9c80620005776000396000f3fe60806040526004361061007b5760003560e01c8063968ed6001161004e578063968ed60014610104578063a26759cb1461012f578063d6e982e514610139578063f2fde38b146101625761007b565b806301339c2114610080578063200d2ed214610097578063715018a6146100c25780638da5cb5b146100d9575b600080fd5b34801561008c57600080fd5b5061009561018b565b005b3480156100a357600080fd5b506100ac6101d2565b6040516100b9919061057a565b60405180910390f35b3480156100ce57600080fd5b506100d7610260565b005b3480156100e557600080fd5b506100ee610274565b6040516100fb91906105dd565b60405180910390f35b34801561011057600080fd5b5061011961029d565b6040516101269190610611565b60405180910390f35b6101376102a3565b005b34801561014557600080fd5b50610160600480360381019061015b9190610689565b6102be565b005b34801561016e57600080fd5b50610189600480360381019061018491906106c9565b610311565b005b6040518060400160405280600881526020017f6c6966742d6f6666000000000000000000000000000000000000000000000000815250600190816101cf9190610931565b50565b600180546101df90610754565b80601f016020809104026020016040519081016040528092919081815260200182805461020b90610754565b80156102585780601f1061022d57610100808354040283529160200191610258565b820191906000526020600020905b81548152906001019060200180831161023b57829003601f168201915b505050505081565b610268610397565b610272600061041e565b565b60008060009054906101000a900473ffffffffffffffffffffffffffffffffffffffff16905090565b60025481565b34600260008282546102b59190610a32565b92505081905550565b6102c6610397565b8173ffffffffffffffffffffffffffffffffffffffff166108fc829081150290604051600060405180830381858888f1935050505015801561030c573d6000803e3d6000fd5b505050565b610319610397565b600073ffffffffffffffffffffffffffffffffffffffff168173ffffffffffffffffffffffffffffffffffffffff160361038b5760006040517f1e4fbdf700000000000000000000000000000000000000000000000000000000815260040161038291906105dd565b60405180910390fd5b6103948161041e565b50565b61039f6104e2565b73ffffffffffffffffffffffffffffffffffffffff166103bd610274565b73ffffffffffffffffffffffffffffffffffffffff161461041c576103e06104e2565b6040517f118cdaa700000000000000000000000000000000000000000000000000000000815260040161041391906105dd565b60405180910390fd5b565b60008060009054906101000a900473ffffffffffffffffffffffffffffffffffffffff169050816000806101000a81548173ffffffffffffffffffffffffffffffffffffffff021916908373ffffffffffffffffffffffffffffffffffffffff1602179055508173ffffffffffffffffffffffffffffffffffffffff168173ffffffffffffffffffffffffffffffffffffffff167f8be0079c531659141344cd1fd0a4f28419497f9722a3daafe3b4186f6b6457e060405160405180910390a35050565b600033905090565b600081519050919050565b600082825260208201905092915050565b60005b83811015610524578082015181840152602081019050610509565b60008484015250505050565b6000601f19601f8301169050919050565b600061054c826104ea565b61055681856104f5565b9350610566818560208601610506565b61056f81610530565b840191505092915050565b600060208201905081810360008301526105948184610541565b905092915050565b600073ffffffffffffffffffffffffffffffffffffffff82169050919050565b60006105c78261059c565b9050919050565b6105d7816105bc565b82525050565b60006020820190506105f260008301846105ce565b92915050565b6000819050919050565b61060b816105f8565b82525050565b60006020820190506106266000830184610602565b92915050565b600080fd5b61063a816105bc565b811461064557600080fd5b50565b60008135905061065781610631565b92915050565b610666816105f8565b811461067157600080fd5b50565b6000813590506106838161065d565b92915050565b600080604083850312156106a05761069f61062c565b5b60006106ae85828601610648565b92505060206106bf85828601610674565b9150509250929050565b6000602082840312156106df576106de61062c565b5b60006106ed84828501610648565b91505092915050565b7f4e487b7100000000000000000000000000000000000000000000000000000000600052604160045260246000fd5b7f4e487b7100000000000000000000000000000000000000000000000000000000600052602260045260246000fd5b6000600282049050600182168061076c57607f821691505b60208210810361077f5761077e610725565b5b50919050565b60008190508160005260206000209050919050565b60006020601f8301049050919050565b600082821b905092915050565b6000600883026107e77fffffffffffffffffffffffffffffffffffffffffffffffffffffffffffffffff826107aa565b6107f186836107aa565b95508019841693508086168417925050509392505050565b6000819050919050565b600061082e610829610824846105f8565b610809565b6105f8565b9050919050565b6000819050919050565b61084883610813565b61085c61085482610835565b8484546107b7565b825550505050565b600090565b610871610864565b61087c81848461083f565b505050565b5b818110156108a057610895600082610869565b600181019050610882565b5050565b601f8211156108e5576108b681610785565b6108bf8461079a565b810160208510156108ce578190505b6108e26108da8561079a565b830182610881565b50505b505050565b600082821c905092915050565b6000610908600019846008026108ea565b1980831691505092915050565b600061092183836108f7565b9150826002028217905092915050565b61093a826104ea565b67ffffffffffffffff811115610953576109526106f6565b5b61095d8254610754565b6109688282856108a4565b600060209050601f83116001811461099b5760008415610989578287015190505b6109938582610915565b8655506109fb565b601f1984166109a986610785565b60005b828110156109d1578489015182556001820191506020850194506020810190506109ac565b868310156109ee57848901516109ea601f8916826108f7565b8355505b6001600288020188555050505b505050505050565b7f4e487b7100000000000000000000000000000000000000000000000000000000600052601160045260246000fd5b6000610a3d826105f8565b9150610a48836105f8565b9250828201905080821115610a6057610a5f610a03565b5b9291505056fea264697066735822122074f3625b75326b21f35dd2fbaee05c3f1546d169dd2c7fbbe0cfd17f891e4da764736f6c63430008180033",
          "opcodes": "PUSH1 0x80 PUSH1 0x40 MSTORE CALLER PUSH1 0x0 PUSH20 0xFFFFFFFFFFFFFFFFFFFFFFFFFFFFFFFFFFFFFFFF AND DUP2 PUSH20 0xFFFFFFFFFFFFFFFFFFFFFFFFFFFFFFFFFFFFFFFF AND SUB PUSH3 0x7A JUMPI PUSH1 0x0 PUSH1 0x40 MLOAD PUSH32 0x1E4FBDF700000000000000000000000000000000000000000000000000000000 DUP2 MSTORE PUSH1 0x4 ADD PUSH3 0x71 SWAP2 SWAP1 PUSH3 0x1E9 JUMP JUMPDEST PUSH1 0x40 MLOAD DUP1 SWAP2 SUB SWAP1 REVERT JUMPDEST PUSH3 0x8B DUP2 PUSH3 0xE0 PUSH1 0x20 SHL PUSH1 0x20 SHR JUMP JUMPDEST POP CALLVALUE PUSH1 0x2 DUP2 SWAP1 SSTORE POP PUSH1 0x40 MLOAD DUP1 PUSH1 0x40 ADD PUSH1 0x40 MSTORE DUP1 PUSH1 0x8 DUP2 MSTORE PUSH1 0x20 ADD PUSH32 0x69676E6974696F6E000000000000000000000000000000000000000000000000 DUP2 MSTORE POP PUSH1 0x1 SWAP1 DUP2 PUSH3 0xD9 SWAP2 SWAP1 PUSH3 0x480 JUMP JUMPDEST POP PUSH3 0x567 JUMP JUMPDEST PUSH1 0x0 DUP1 PUSH1 0x0 SWAP1 SLOAD SWAP1 PUSH2 0x100 EXP SWAP1 DIV PUSH20 0xFFFFFFFFFFFFFFFFFFFFFFFFFFFFFFFFFFFFFFFF AND SWAP1 POP DUP2 PUSH1 0x0 DUP1 PUSH2 0x100 EXP DUP2 SLOAD DUP2 PUSH20 0xFFFFFFFFFFFFFFFFFFFFFFFFFFFFFFFFFFFFFFFF MUL NOT AND SWAP1 DUP4 PUSH20 0xFFFFFFFFFFFFFFFFFFFFFFFFFFFFFFFFFFFFFFFF AND MUL OR SWAP1 SSTORE POP DUP2 PUSH20 0xFFFFFFFFFFFFFFFFFFFFFFFFFFFFFFFFFFFFFFFF AND DUP2 PUSH20 0xFFFFFFFFFFFFFFFFFFFFFFFFFFFFFFFFFFFFFFFF AND PUSH32 0x8BE0079C531659141344CD1FD0A4F28419497F9722A3DAAFE3B4186F6B6457E0 PUSH1 0x40 MLOAD PUSH1 0x40 MLOAD DUP1 SWAP2 SUB SWAP1 LOG3 POP POP JUMP JUMPDEST PUSH1 0x0 PUSH20 0xFFFFFFFFFFFFFFFFFFFFFFFFFFFFFFFFFFFFFFFF DUP3 AND SWAP1 POP SWAP2 SWAP1 POP JUMP JUMPDEST PUSH1 0x0 PUSH3 0x1D1 DUP3 PUSH3 0x1A4 JUMP JUMPDEST SWAP1 POP SWAP2 SWAP1 POP JUMP JUMPDEST PUSH3 0x1E3 DUP2 PUSH3 0x1C4 JUMP JUMPDEST DUP3 MSTORE POP POP JUMP JUMPDEST PUSH1 0x0 PUSH1 0x20 DUP3 ADD SWAP1 POP PUSH3 0x200 PUSH1 0x0 DUP4 ADD DUP5 PUSH3 0x1D8 JUMP JUMPDEST SWAP3 SWAP2 POP POP JUMP JUMPDEST PUSH1 0x0 DUP2 MLOAD SWAP1 POP SWAP2 SWAP1 POP JUMP JUMPDEST PUSH32 0x4E487B7100000000000000000000000000000000000000000000000000000000 PUSH1 0x0 MSTORE PUSH1 0x41 PUSH1 0x4 MSTORE PUSH1 0x24 PUSH1 0x0 REVERT JUMPDEST PUSH32 0x4E487B7100000000000000000000000000000000000000000000000000000000 PUSH1 0x0 MSTORE PUSH1 0x22 PUSH1 0x4 MSTORE PUSH1 0x24 PUSH1 0x0 REVERT JUMPDEST PUSH1 0x0 PUSH1 0x2 DUP3 DIV SWAP1 POP PUSH1 0x1 DUP3 AND DUP1 PUSH3 0x288 JUMPI PUSH1 0x7F DUP3 AND SWAP2 POP JUMPDEST PUSH1 0x20 DUP3 LT DUP2 SUB PUSH3 0x29E JUMPI PUSH3 0x29D PUSH3 0x240 JUMP JUMPDEST JUMPDEST POP SWAP2 SWAP1 POP JUMP JUMPDEST PUSH1 0x0 DUP2 SWAP1 POP DUP2 PUSH1 0x0 MSTORE PUSH1 0x20 PUSH1 0x0 KECCAK256 SWAP1 POP SWAP2 SWAP1 POP JUMP JUMPDEST PUSH1 0x0 PUSH1 0x20 PUSH1 0x1F DUP4 ADD DIV SWAP1 POP SWAP2 SWAP1 POP JUMP JUMPDEST PUSH1 0x0 DUP3 DUP3 SHL SWAP1 POP SWAP3 SWAP2 POP POP JUMP JUMPDEST PUSH1 0x0 PUSH1 0x8 DUP4 MUL PUSH3 0x308 PUSH32 0xFFFFFFFFFFFFFFFFFFFFFFFFFFFFFFFFFFFFFFFFFFFFFFFFFFFFFFFFFFFFFFFF DUP3 PUSH3 0x2C9 JUMP JUMPDEST PUSH3 0x314 DUP7 DUP4 PUSH3 0x2C9 JUMP JUMPDEST SWAP6 POP DUP1 NOT DUP5 AND SWAP4 POP DUP1 DUP7 AND DUP5 OR SWAP3 POP POP POP SWAP4 SWAP3 POP POP POP JUMP JUMPDEST PUSH1 0x0 DUP2 SWAP1 POP SWAP2 SWAP1 POP JUMP JUMPDEST PUSH1 0x0 DUP2 SWAP1 POP SWAP2 SWAP1 POP JUMP JUMPDEST PUSH1 0x0 PUSH3 0x361 PUSH3 0x35B PUSH3 0x355 DUP5 PUSH3 0x32C JUMP JUMPDEST PUSH3 0x336 JUMP JUMPDEST PUSH3 0x32C JUMP JUMPDEST SWAP1 POP SWAP2 SWAP1 POP JUMP JUMPDEST PUSH1 0x0 DUP2 SWAP1 POP SWAP2 SWAP1 POP JUMP JUMPDEST PUSH3 0x37D DUP4 PUSH3 0x340 JUMP JUMPDEST PUSH3 0x395 PUSH3 0x38C DUP3 PUSH3 0x368 JUMP JUMPDEST DUP5 DUP5 SLOAD PUSH3 0x2D6 JUMP JUMPDEST DUP3 SSTORE POP POP POP POP JUMP JUMPDEST PUSH1 0x0 SWAP1 JUMP JUMPDEST PUSH3 0x3AC PUSH3 0x39D JUMP JUMPDEST PUSH3 0x3B9 DUP2 DUP5 DUP5 PUSH3 0x372 JUMP JUMPDEST POP POP POP JUMP JUMPDEST JUMPDEST DUP2 DUP2 LT ISZERO PUSH3 0x3E1 JUMPI PUSH3 0x3D5 PUSH1 0x0 DUP3 PUSH3 0x3A2 JUMP JUMPDEST PUSH1 0x1 DUP2 ADD SWAP1 POP PUSH3 0x3BF JUMP JUMPDEST POP POP JUMP JUMPDEST PUSH1 0x1F DUP3 GT ISZERO PUSH3 0x430 JUMPI PUSH3 0x3FA DUP2 PUSH3 0x2A4 JUMP JUMPDEST PUSH3 0x405 DUP5 PUSH3 0x2B9 JUMP JUMPDEST DUP2 ADD PUSH1 0x20 DUP6 LT ISZERO PUSH3 0x415 JUMPI DUP2 SWAP1 POP JUMPDEST PUSH3 0x42D PUSH3 0x424 DUP6 PUSH3 0x2B9 JUMP JUMPDEST DUP4 ADD DUP3 PUSH3 0x3BE JUMP JUMPDEST POP POP JUMPDEST POP POP POP JUMP JUMPDEST PUSH1 0x0 DUP3 DUP3 SHR SWAP1 POP SWAP3 SWAP2 POP POP JUMP JUMPDEST PUSH1 0x0 PUSH3 0x455 PUSH1 0x0 NOT DUP5 PUSH1 0x8 MUL PUSH3 0x435 JUMP JUMPDEST NOT DUP1 DUP4 AND SWAP2 POP POP SWAP3 SWAP2 POP POP JUMP JUMPDEST PUSH1 0x0 PUSH3 0x470 DUP4 DUP4 PUSH3 0x442 JUMP JUMPDEST SWAP2 POP DUP3 PUSH1 0x2 MUL DUP3 OR SWAP1 POP SWAP3 SWAP2 POP POP JUMP JUMPDEST PUSH3 0x48B DUP3 PUSH3 0x206 JUMP JUMPDEST PUSH8 0xFFFFFFFFFFFFFFFF DUP2 GT ISZERO PUSH3 0x4A7 JUMPI PUSH3 0x4A6 PUSH3 0x211 JUMP JUMPDEST JUMPDEST PUSH3 0x4B3 DUP3 SLOAD PUSH3 0x26F JUMP JUMPDEST PUSH3 0x4C0 DUP3 DUP3 DUP6 PUSH3 0x3E5 JUMP JUMPDEST PUSH1 0x0 PUSH1 0x20 SWAP1 POP PUSH1 0x1F DUP4 GT PUSH1 0x1 DUP2 EQ PUSH3 0x4F8 JUMPI PUSH1 0x0 DUP5 ISZERO PUSH3 0x4E3 JUMPI DUP3 DUP8 ADD MLOAD SWAP1 POP JUMPDEST PUSH3 0x4EF DUP6 DUP3 PUSH3 0x462 JUMP JUMPDEST DUP7 SSTORE POP PUSH3 0x55F JUMP JUMPDEST PUSH1 0x1F NOT DUP5 AND PUSH3 0x508 DUP7 PUSH3 0x2A4 JUMP JUMPDEST PUSH1 0x0 JUMPDEST DUP3 DUP2 LT ISZERO PUSH3 0x532 JUMPI DUP5 DUP10 ADD MLOAD DUP3 SSTORE PUSH1 0x1 DUP3 ADD SWAP2 POP PUSH1 0x20 DUP6 ADD SWAP5 POP PUSH1 0x20 DUP2 ADD SWAP1 POP PUSH3 0x50B JUMP JUMPDEST DUP7 DUP4 LT ISZERO PUSH3 0x552 JUMPI DUP5 DUP10 ADD MLOAD PUSH3 0x54E PUSH1 0x1F DUP10 AND DUP3 PUSH3 0x442 JUMP JUMPDEST DUP4 SSTORE POP JUMPDEST PUSH1 0x1 PUSH1 0x2 DUP9 MUL ADD DUP9 SSTORE POP POP POP JUMPDEST POP POP POP POP POP POP JUMP JUMPDEST PUSH2 0xA9C DUP1 PUSH3 0x577 PUSH1 0x0 CODECOPY PUSH1 0x0 RETURN INVALID PUSH1 0x80 PUSH1 0x40 MSTORE PUSH1 0x4 CALLDATASIZE LT PUSH2 0x7B JUMPI PUSH1 0x0 CALLDATALOAD PUSH1 0xE0 SHR DUP1 PUSH4 0x968ED600 GT PUSH2 0x4E JUMPI DUP1 PUSH4 0x968ED600 EQ PUSH2 0x104 JUMPI DUP1 PUSH4 0xA26759CB EQ PUSH2 0x12F JUMPI DUP1 PUSH4 0xD6E982E5 EQ PUSH2 0x139 JUMPI DUP1 PUSH4 0xF2FDE38B EQ PUSH2 0x162 JUMPI PUSH2 0x7B JUMP JUMPDEST DUP1 PUSH4 0x1339C21 EQ PUSH2 0x80 JUMPI DUP1 PUSH4 0x200D2ED2 EQ PUSH2 0x97 JUMPI DUP1 PUSH4 0x715018A6 EQ PUSH2 0xC2 JUMPI DUP1 PUSH4 0x8DA5CB5B EQ PUSH2 0xD9 JUMPI JUMPDEST PUSH1 0x0 DUP1 REVERT JUMPDEST CALLVALUE DUP1 ISZERO PUSH2 0x8C JUMPI PUSH1 0x0 DUP1 REVERT JUMPDEST POP PUSH2 0x95 PUSH2 0x18B JUMP JUMPDEST STOP JUMPDEST CALLVALUE DUP1 ISZERO PUSH2 0xA3 JUMPI PUSH1 0x0 DUP1 REVERT JUMPDEST POP PUSH2 0xAC PUSH2 0x1D2 JUMP JUMPDEST PUSH1 0x40 MLOAD PUSH2 0xB9 SWAP2 SWAP1 PUSH2 0x57A JUMP JUMPDEST PUSH1 0x40 MLOAD DUP1 SWAP2 SUB SWAP1 RETURN JUMPDEST CALLVALUE DUP1 ISZERO PUSH2 0xCE JUMPI PUSH1 0x0 DUP1 REVERT JUMPDEST POP PUSH2 0xD7 PUSH2 0x260 JUMP JUMPDEST STOP JUMPDEST CALLVALUE DUP1 ISZERO PUSH2 0xE5 JUMPI PUSH1 0x0 DUP1 REVERT JUMPDEST POP PUSH2 0xEE PUSH2 0x274 JUMP JUMPDEST PUSH1 0x40 MLOAD PUSH2 0xFB SWAP2 SWAP1 PUSH2 0x5DD JUMP JUMPDEST PUSH1 0x40 MLOAD DUP1 SWAP2 SUB SWAP1 RETURN JUMPDEST CALLVALUE DUP1 ISZERO PUSH2 0x110 JUMPI PUSH1 0x0 DUP1 REVERT JUMPDEST POP PUSH2 0x119 PUSH2 0x29D JUMP JUMPDEST PUSH1 0x40 MLOAD PUSH2 0x126 SWAP2 SWAP1 PUSH2 0x611 JUMP JUMPDEST PUSH1 0x40 MLOAD DUP1 SWAP2 SUB SWAP1 RETURN JUMPDEST PUSH2 0x137 PUSH2 0x2A3 JUMP JUMPDEST STOP JUMPDEST CALLVALUE DUP1 ISZERO PUSH2 0x145 JUMPI PUSH1 0x0 DUP1 REVERT JUMPDEST POP PUSH2 0x160 PUSH1 0x4 DUP1 CALLDATASIZE SUB DUP2 ADD SWAP1 PUSH2 0x15B SWAP2 SWAP1 PUSH2 0x689 JUMP JUMPDEST PUSH2 0x2BE JUMP JUMPDEST STOP JUMPDEST CALLVALUE DUP1 ISZERO PUSH2 0x16E JUMPI PUSH1 0x0 DUP1 REVERT JUMPDEST POP PUSH2 0x189 PUSH1 0x4 DUP1 CALLDATASIZE SUB DUP2 ADD SWAP1 PUSH2 0x184 SWAP2 SWAP1 PUSH2 0x6C9 JUMP JUMPDEST PUSH2 0x311 JUMP JUMPDEST STOP JUMPDEST PUSH1 0x40 MLOAD DUP1 PUSH1 0x40 ADD PUSH1 0x40 MSTORE DUP1 PUSH1 0x8 DUP2 MSTORE PUSH1 0x20 ADD PUSH32 0x6C6966742D6F6666000000000000000000000000000000000000000000000000 DUP2 MSTORE POP PUSH1 0x1 SWAP1 DUP2 PUSH2 0x1CF SWAP2 SWAP1 PUSH2 0x931 JUMP JUMPDEST POP JUMP JUMPDEST PUSH1 0x1 DUP1 SLOAD PUSH2 0x1DF SWAP1 PUSH2 0x754 JUMP JUMPDEST DUP1 PUSH1 0x1F ADD PUSH1 0x20 DUP1 SWAP2 DIV MUL PUSH1 0x20 ADD PUSH1 0x40 MLOAD SWAP1 DUP2 ADD PUSH1 0x40 MSTORE DUP1 SWAP3 SWAP2 SWAP1 DUP2 DUP2 MSTORE PUSH1 0x20 ADD DUP3 DUP1 SLOAD PUSH2 0x20B SWAP1 PUSH2 0x754 JUMP JUMPDEST DUP1 ISZERO PUSH2 0x258 JUMPI DUP1 PUSH1 0x1F LT PUSH2 0x22D JUMPI PUSH2 0x100 DUP1 DUP4 SLOAD DIV MUL DUP4 MSTORE SWAP2 PUSH1 0x20 ADD SWAP2 PUSH2 0x258 JUMP JUMPDEST DUP3 ADD SWAP2 SWAP1 PUSH1 0x0 MSTORE PUSH1 0x20 PUSH1 0x0 KECCAK256 SWAP1 JUMPDEST DUP2 SLOAD DUP2 MSTORE SWAP1 PUSH1 0x1 ADD SWAP1 PUSH1 0x20 ADD DUP1 DUP4 GT PUSH2 0x23B JUMPI DUP3 SWAP1 SUB PUSH1 0x1F AND DUP3 ADD SWAP2 JUMPDEST POP POP POP POP POP DUP2 JUMP JUMPDEST PUSH2 0x268 PUSH2 0x397 JUMP JUMPDEST PUSH2 0x272 PUSH1 0x0 PUSH2 0x41E JUMP JUMPDEST JUMP JUMPDEST PUSH1 0x0 DUP1 PUSH1 0x0 SWAP1 SLOAD SWAP1 PUSH2 0x100 EXP SWAP1 DIV PUSH20 0xFFFFFFFFFFFFFFFFFFFFFFFFFFFFFFFFFFFFFFFF AND SWAP1 POP SWAP1 JUMP JUMPDEST PUSH1 0x2 SLOAD DUP2 JUMP JUMPDEST CALLVALUE PUSH1 0x2 PUSH1 0x0 DUP3 DUP3 SLOAD PUSH2 0x2B5 SWAP2 SWAP1 PUSH2 0xA32 JUMP JUMPDEST SWAP3 POP POP DUP2 SWAP1 SSTORE POP JUMP JUMPDEST PUSH2 0x2C6 PUSH2 0x397 JUMP JUMPDEST DUP2 PUSH20 0xFFFFFFFFFFFFFFFFFFFFFFFFFFFFFFFFFFFFFFFF AND PUSH2 0x8FC DUP3 SWAP1 DUP2 ISZERO MUL SWAP1 PUSH1 0x40 MLOAD PUSH1 0x0 PUSH1 0x40 MLOAD DUP1 DUP4 SUB DUP2 DUP6 DUP9 DUP9 CALL SWAP4 POP POP POP POP ISZERO DUP1 ISZERO PUSH2 0x30C JUMPI RETURNDATASIZE PUSH1 0x0 DUP1 RETURNDATACOPY RETURNDATASIZE PUSH1 0x0 REVERT JUMPDEST POP POP POP JUMP JUMPDEST PUSH2 0x319 PUSH2 0x397 JUMP JUMPDEST PUSH1 0x0 PUSH20 0xFFFFFFFFFFFFFFFFFFFFFFFFFFFFFFFFFFFFFFFF AND DUP2 PUSH20 0xFFFFFFFFFFFFFFFFFFFFFFFFFFFFFFFFFFFFFFFF AND SUB PUSH2 0x38B JUMPI PUSH1 0x0 PUSH1 0x40 MLOAD PUSH32 0x1E4FBDF700000000000000000000000000000000000000000000000000000000 DUP2 MSTORE PUSH1 0x4 ADD PUSH2 0x382 SWAP2 SWAP1 PUSH2 0x5DD JUMP JUMPDEST PUSH1 0x40 MLOAD DUP1 SWAP2 SUB SWAP1 REVERT JUMPDEST PUSH2 0x394 DUP2 PUSH2 0x41E JUMP JUMPDEST POP JUMP JUMPDEST PUSH2 0x39F PUSH2 0x4E2 JUMP JUMPDEST PUSH20 0xFFFFFFFFFFFFFFFFFFFFFFFFFFFFFFFFFFFFFFFF AND PUSH2 0x3BD PUSH2 0x274 JUMP JUMPDEST PUSH20 0xFFFFFFFFFFFFFFFFFFFFFFFFFFFFFFFFFFFFFFFF AND EQ PUSH2 0x41C JUMPI PUSH2 0x3E0 PUSH2 0x4E2 JUMP JUMPDEST PUSH1 0x40 MLOAD PUSH32 0x118CDAA700000000000000000000000000000000000000000000000000000000 DUP2 MSTORE PUSH1 0x4 ADD PUSH2 0x413 SWAP2 SWAP1 PUSH2 0x5DD JUMP JUMPDEST PUSH1 0x40 MLOAD DUP1 SWAP2 SUB SWAP1 REVERT JUMPDEST JUMP JUMPDEST PUSH1 0x0 DUP1 PUSH1 0x0 SWAP1 SLOAD SWAP1 PUSH2 0x100 EXP SWAP1 DIV PUSH20 0xFFFFFFFFFFFFFFFFFFFFFFFFFFFFFFFFFFFFFFFF AND SWAP1 POP DUP2 PUSH1 0x0 DUP1 PUSH2 0x100 EXP DUP2 SLOAD DUP2 PUSH20 0xFFFFFFFFFFFFFFFFFFFFFFFFFFFFFFFFFFFFFFFF MUL NOT AND SWAP1 DUP4 PUSH20 0xFFFFFFFFFFFFFFFFFFFFFFFFFFFFFFFFFFFFFFFF AND MUL OR SWAP1 SSTORE POP DUP2 PUSH20 0xFFFFFFFFFFFFFFFFFFFFFFFFFFFFFFFFFFFFFFFF AND DUP2 PUSH20 0xFFFFFFFFFFFFFFFFFFFFFFFFFFFFFFFFFFFFFFFF AND PUSH32 0x8BE0079C531659141344CD1FD0A4F28419497F9722A3DAAFE3B4186F6B6457E0 PUSH1 0x40 MLOAD PUSH1 0x40 MLOAD DUP1 SWAP2 SUB SWAP1 LOG3 POP POP JUMP JUMPDEST PUSH1 0x0 CALLER SWAP1 POP SWAP1 JUMP JUMPDEST PUSH1 0x0 DUP2 MLOAD SWAP1 POP SWAP2 SWAP1 POP JUMP JUMPDEST PUSH1 0x0 DUP3 DUP3 MSTORE PUSH1 0x20 DUP3 ADD SWAP1 POP SWAP3 SWAP2 POP POP JUMP JUMPDEST PUSH1 0x0 JUMPDEST DUP4 DUP2 LT ISZERO PUSH2 0x524 JUMPI DUP1 DUP3 ADD MLOAD DUP2 DUP5 ADD MSTORE PUSH1 0x20 DUP2 ADD SWAP1 POP PUSH2 0x509 JUMP JUMPDEST PUSH1 0x0 DUP5 DUP5 ADD MSTORE POP POP POP POP JUMP JUMPDEST PUSH1 0x0 PUSH1 0x1F NOT PUSH1 0x1F DUP4 ADD AND SWAP1 POP SWAP2 SWAP1 POP JUMP JUMPDEST PUSH1 0x0 PUSH2 0x54C DUP3 PUSH2 0x4EA JUMP JUMPDEST PUSH2 0x556 DUP2 DUP6 PUSH2 0x4F5 JUMP JUMPDEST SWAP4 POP PUSH2 0x566 DUP2 DUP6 PUSH1 0x20 DUP7 ADD PUSH2 0x506 JUMP JUMPDEST PUSH2 0x56F DUP2 PUSH2 0x530 JUMP JUMPDEST DUP5 ADD SWAP2 POP POP SWAP3 SWAP2 POP POP JUMP JUMPDEST PUSH1 0x0 PUSH1 0x20 DUP3 ADD SWAP1 POP DUP2 DUP2 SUB PUSH1 0x0 DUP4 ADD MSTORE PUSH2 0x594 DUP2 DUP5 PUSH2 0x541 JUMP JUMPDEST SWAP1 POP SWAP3 SWAP2 POP POP JUMP JUMPDEST PUSH1 0x0 PUSH20 0xFFFFFFFFFFFFFFFFFFFFFFFFFFFFFFFFFFFFFFFF DUP3 AND SWAP1 POP SWAP2 SWAP1 POP JUMP JUMPDEST PUSH1 0x0 PUSH2 0x5C7 DUP3 PUSH2 0x59C JUMP JUMPDEST SWAP1 POP SWAP2 SWAP1 POP JUMP JUMPDEST PUSH2 0x5D7 DUP2 PUSH2 0x5BC JUMP JUMPDEST DUP3 MSTORE POP POP JUMP JUMPDEST PUSH1 0x0 PUSH1 0x20 DUP3 ADD SWAP1 POP PUSH2 0x5F2 PUSH1 0x0 DUP4 ADD DUP5 PUSH2 0x5CE JUMP JUMPDEST SWAP3 SWAP2 POP POP JUMP JUMPDEST PUSH1 0x0 DUP2 SWAP1 POP SWAP2 SWAP1 POP JUMP JUMPDEST PUSH2 0x60B DUP2 PUSH2 0x5F8 JUMP JUMPDEST DUP3 MSTORE POP POP JUMP JUMPDEST PUSH1 0x0 PUSH1 0x20 DUP3 ADD SWAP1 POP PUSH2 0x626 PUSH1 0x0 DUP4 ADD DUP5 PUSH2 0x602 JUMP JUMPDEST SWAP3 SWAP2 POP POP JUMP JUMPDEST PUSH1 0x0 DUP1 REVERT JUMPDEST PUSH2 0x63A DUP2 PUSH2 0x5BC JUMP JUMPDEST DUP2 EQ PUSH2 0x645 JUMPI PUSH1 0x0 DUP1 REVERT JUMPDEST POP JUMP JUMPDEST PUSH1 0x0 DUP2 CALLDATALOAD SWAP1 POP PUSH2 0x657 DUP2 PUSH2 0x631 JUMP JUMPDEST SWAP3 SWAP2 POP POP JUMP JUMPDEST PUSH2 0x666 DUP2 PUSH2 0x5F8 JUMP JUMPDEST DUP2 EQ PUSH2 0x671 JUMPI PUSH1 0x0 DUP1 REVERT JUMPDEST POP JUMP JUMPDEST PUSH1 0x0 DUP2 CALLDATALOAD SWAP1 POP PUSH2 0x683 DUP2 PUSH2 0x65D JUMP JUMPDEST SWAP3 SWAP2 POP POP JUMP JUMPDEST PUSH1 0x0 DUP1 PUSH1 0x40 DUP4 DUP6 SUB SLT ISZERO PUSH2 0x6A0 JUMPI PUSH2 0x69F PUSH2 0x62C JUMP JUMPDEST JUMPDEST PUSH1 0x0 PUSH2 0x6AE DUP6 DUP3 DUP7 ADD PUSH2 0x648 JUMP JUMPDEST SWAP3 POP POP PUSH1 0x20 PUSH2 0x6BF DUP6 DUP3 DUP7 ADD PUSH2 0x674 JUMP JUMPDEST SWAP2 POP POP SWAP3 POP SWAP3 SWAP1 POP JUMP JUMPDEST PUSH1 0x0 PUSH1 0x20 DUP3 DUP5 SUB SLT ISZERO PUSH2 0x6DF JUMPI PUSH2 0x6DE PUSH2 0x62C JUMP JUMPDEST JUMPDEST PUSH1 0x0 PUSH2 0x6ED DUP5 DUP3 DUP6 ADD PUSH2 0x648 JUMP JUMPDEST SWAP2 POP POP SWAP3 SWAP2 POP POP JUMP JUMPDEST PUSH32 0x4E487B7100000000000000000000000000000000000000000000000000000000 PUSH1 0x0 MSTORE PUSH1 0x41 PUSH1 0x4 MSTORE PUSH1 0x24 PUSH1 0x0 REVERT JUMPDEST PUSH32 0x4E487B7100000000000000000000000000000000000000000000000000000000 PUSH1 0x0 MSTORE PUSH1 0x22 PUSH1 0x4 MSTORE PUSH1 0x24 PUSH1 0x0 REVERT JUMPDEST PUSH1 0x0 PUSH1 0x2 DUP3 DIV SWAP1 POP PUSH1 0x1 DUP3 AND DUP1 PUSH2 0x76C JUMPI PUSH1 0x7F DUP3 AND SWAP2 POP JUMPDEST PUSH1 0x20 DUP3 LT DUP2 SUB PUSH2 0x77F JUMPI PUSH2 0x77E PUSH2 0x725 JUMP JUMPDEST JUMPDEST POP SWAP2 SWAP1 POP JUMP JUMPDEST PUSH1 0x0 DUP2 SWAP1 POP DUP2 PUSH1 0x0 MSTORE PUSH1 0x20 PUSH1 0x0 KECCAK256 SWAP1 POP SWAP2 SWAP1 POP JUMP JUMPDEST PUSH1 0x0 PUSH1 0x20 PUSH1 0x1F DUP4 ADD DIV SWAP1 POP SWAP2 SWAP1 POP JUMP JUMPDEST PUSH1 0x0 DUP3 DUP3 SHL SWAP1 POP SWAP3 SWAP2 POP POP JUMP JUMPDEST PUSH1 0x0 PUSH1 0x8 DUP4 MUL PUSH2 0x7E7 PUSH32 0xFFFFFFFFFFFFFFFFFFFFFFFFFFFFFFFFFFFFFFFFFFFFFFFFFFFFFFFFFFFFFFFF DUP3 PUSH2 0x7AA JUMP JUMPDEST PUSH2 0x7F1 DUP7 DUP4 PUSH2 0x7AA JUMP JUMPDEST SWAP6 POP DUP1 NOT DUP5 AND SWAP4 POP DUP1 DUP7 AND DUP5 OR SWAP3 POP POP POP SWAP4 SWAP3 POP POP POP JUMP JUMPDEST PUSH1 0x0 DUP2 SWAP1 POP SWAP2 SWAP1 POP JUMP JUMPDEST PUSH1 0x0 PUSH2 0x82E PUSH2 0x829 PUSH2 0x824 DUP5 PUSH2 0x5F8 JUMP JUMPDEST PUSH2 0x809 JUMP JUMPDEST PUSH2 0x5F8 JUMP JUMPDEST SWAP1 POP SWAP2 SWAP1 POP JUMP JUMPDEST PUSH1 0x0 DUP2 SWAP1 POP SWAP2 SWAP1 POP JUMP JUMPDEST PUSH2 0x848 DUP4 PUSH2 0x813 JUMP JUMPDEST PUSH2 0x85C PUSH2 0x854 DUP3 PUSH2 0x835 JUMP JUMPDEST DUP5 DUP5 SLOAD PUSH2 0x7B7 JUMP JUMPDEST DUP3 SSTORE POP POP POP POP JUMP JUMPDEST PUSH1 0x0 SWAP1 JUMP JUMPDEST PUSH2 0x871 PUSH2 0x864 JUMP JUMPDEST PUSH2 0x87C DUP2 DUP5 DUP5 PUSH2 0x83F JUMP JUMPDEST POP POP POP JUMP JUMPDEST JUMPDEST DUP2 DUP2 LT ISZERO PUSH2 0x8A0 JUMPI PUSH2 0x895 PUSH1 0x0 DUP3 PUSH2 0x869 JUMP JUMPDEST PUSH1 0x1 DUP2 ADD SWAP1 POP PUSH2 0x882 JUMP JUMPDEST POP POP JUMP JUMPDEST PUSH1 0x1F DUP3 GT ISZERO PUSH2 0x8E5 JUMPI PUSH2 0x8B6 DUP2 PUSH2 0x785 JUMP JUMPDEST PUSH2 0x8BF DUP5 PUSH2 0x79A JUMP JUMPDEST DUP2 ADD PUSH1 0x20 DUP6 LT ISZERO PUSH2 0x8CE JUMPI DUP2 SWAP1 POP JUMPDEST PUSH2 0x8E2 PUSH2 0x8DA DUP6 PUSH2 0x79A JUMP JUMPDEST DUP4 ADD DUP3 PUSH2 0x881 JUMP JUMPDEST POP POP JUMPDEST POP POP POP JUMP JUMPDEST PUSH1 0x0 DUP3 DUP3 SHR SWAP1 POP SWAP3 SWAP2 POP POP JUMP JUMPDEST PUSH1 0x0 PUSH2 0x908 PUSH1 0x0 NOT DUP5 PUSH1 0x8 MUL PUSH2 0x8EA JUMP JUMPDEST NOT DUP1 DUP4 AND SWAP2 POP POP SWAP3 SWAP2 POP POP JUMP JUMPDEST PUSH1 0x0 PUSH2 0x921 DUP4 DUP4 PUSH2 0x8F7 JUMP JUMPDEST SWAP2 POP DUP3 PUSH1 0x2 MUL DUP3 OR SWAP1 POP SWAP3 SWAP2 POP POP JUMP JUMPDEST PUSH2 0x93A DUP3 PUSH2 0x4EA JUMP JUMPDEST PUSH8 0xFFFFFFFFFFFFFFFF DUP2 GT ISZERO PUSH2 0x953 JUMPI PUSH2 0x952 PUSH2 0x6F6 JUMP JUMPDEST JUMPDEST PUSH2 0x95D DUP3 SLOAD PUSH2 0x754 JUMP JUMPDEST PUSH2 0x968 DUP3 DUP3 DUP6 PUSH2 0x8A4 JUMP JUMPDEST PUSH1 0x0 PUSH1 0x20 SWAP1 POP PUSH1 0x1F DUP4 GT PUSH1 0x1 DUP2 EQ PUSH2 0x99B JUMPI PUSH1 0x0 DUP5 ISZERO PUSH2 0x989 JUMPI DUP3 DUP8 ADD MLOAD SWAP1 POP JUMPDEST PUSH2 0x993 DUP6 DUP3 PUSH2 0x915 JUMP JUMPDEST DUP7 SSTORE POP PUSH2 0x9FB JUMP JUMPDEST PUSH1 0x1F NOT DUP5 AND PUSH2 0x9A9 DUP7 PUSH2 0x785 JUMP JUMPDEST PUSH1 0x0 JUMPDEST DUP3 DUP2 LT ISZERO PUSH2 0x9D1 JUMPI DUP5 DUP10 ADD MLOAD DUP3 SSTORE PUSH1 0x1 DUP3 ADD SWAP2 POP PUSH1 0x20 DUP6 ADD SWAP5 POP PUSH1 0x20 DUP2 ADD SWAP1 POP PUSH2 0x9AC JUMP JUMPDEST DUP7 DUP4 LT ISZERO PUSH2 0x9EE JUMPI DUP5 DUP10 ADD MLOAD PUSH2 0x9EA PUSH1 0x1F DUP10 AND DUP3 PUSH2 0x8F7 JUMP JUMPDEST DUP4 SSTORE POP JUMPDEST PUSH1 0x1 PUSH1 0x2 DUP9 MUL ADD DUP9 SSTORE POP POP POP JUMPDEST POP POP POP POP POP POP JUMP JUMPDEST PUSH32 0x4E487B7100000000000000000000000000000000000000000000000000000000 PUSH1 0x0 MSTORE PUSH1 0x11 PUSH1 0x4 MSTORE PUSH1 0x24 PUSH1 0x0 REVERT JUMPDEST PUSH1 0x0 PUSH2 0xA3D DUP3 PUSH2 0x5F8 JUMP JUMPDEST SWAP2 POP PUSH2 0xA48 DUP4 PUSH2 0x5F8 JUMP JUMPDEST SWAP3 POP DUP3 DUP3 ADD SWAP1 POP DUP1 DUP3 GT ISZERO PUSH2 0xA60 JUMPI PUSH2 0xA5F PUSH2 0xA03 JUMP JUMPDEST JUMPDEST SWAP3 SWAP2 POP POP JUMP INVALID LOG2 PUSH5 0x6970667358 0x22 SLT KECCAK256 PUSH21 0xF3625B75326B21F35DD2FBAEE05C3F1546D169DD2C PUSH32 0xBBE0CFD17F891E4DA764736F6C63430008180033000000000000000000000000 "
        },
        "methodIdentifiers": {
          "addFunds()": "a26759cb",
          "launch()": "01339c21",
          "owner()": "8da5cb5b",
          "releaseFunds(address,uint256)": "d6e982e5",
          "renounceOwnership()": "715018a6",
          "status()": "200d2ed2",
          "totalFunds()": "968ed600",
          "transferOwnership(address)": "f2fde38b"
        }
      }
    }
  }
}